:020000020000FC
:06000000FFC029C130C160
:100200000FEF0DBF08E00EBF002452985A9A539882
:100210005B9A0FE00093690003E00DBB00E60AB9AA
:1002200002E004B903EA04BD03E005BD01E8009360
:1002300080000BE00093810040E850E060E070E057
:1002400009B10C70702F46D0789400C02D9A47D019
:100250002D9845D0FBCF0F930FB70F930CD00F9174
:100260000FBF0F9118950F930FB70F9304D00F91F5
:100270000FBF0F9118950F931F9209B10C700717BC
:1002800029F1703039F0743051F07C3069F07830F9
:1002900081F01CC0043091F00830A1F017C00C3080
:1002A00069F0003079F012C0083041F0043051F0AC
:1002B0000DC0003019F00C3029F008C043952D9A7C
:1002C0002D9803C04A952D9A2D9804D0702F1F9019
:1002D0000F91089558BD47BD6093880008951F93FE
:1002E0002F933F931DE02DE237ED3A95F1F72A95D4
:0E02F000E1F71A95D1F73F912F911F910895D4
:00000001FF
