:020000020000FC
:0C0000000C9400010C9442010C945C0173
:100200000FEF0DBF08E00EBF52985A9853985B98B5
:100210000AE00093690003E00DBB00E60AB902E0C2
:1002200004B903EA04BD02E005BD01E800938000C3
:100230000AE00093810040E05FEF62E370E00DD0E0
:10024000789400C0472F672F0FEF071B502F05D062
:100250002D9A08D02D9806D0F5CF58BD47BD609394
:10026000880008951F932F933F931DE02DE237EDF3
:100270003A95F1F72A95E1F71A95D1F73F912F9129
:100280001F9108950F931F932F932FB72F9319B199
:100290001C7012FF03C013FD07C003C013FD01C093
:1002A00003C008E0700F02C008E0701B2F912FBF41
:1002B0002F911F910F9118950F931F932F932FB785
:1002C0002F9319B11C7013FF03C012FD04C006C0A8
:1002D00012FD04C000C008E0700F02C008E0701BEF
:0C02E0002F912FBF2F911F910F911895A7
:00000001FF
